{
  "_format": "hh-sol-artifact-1",
  "contractName": "Raffle",
  "sourceName": "contracts/Raffle.sol",
  "abi": [
    {
      "inputs": [
        {
          "internalType": "uint256",
          "name": "entranceFee",
          "type": "uint256"
        }
      ],
      "stateMutability": "nonpayable",
      "type": "constructor"
    },
    {
      "inputs": [],
      "name": "enterRaffle",
      "outputs": [],
      "stateMutability": "nonpayable",
      "type": "function"
    }
  ],
  "bytecode": "0x60a060405234801561001057600080fd5b5060405161012b38038061012b83398181016040528101906100329190610055565b8060808181525050506100a8565b60008151905061004f81610091565b92915050565b60006020828403121561006b5761006a61008c565b5b600061007984828501610040565b91505092915050565b6000819050919050565b600080fd5b61009a81610082565b81146100a557600080fd5b50565b608051606d6100be60003960005050606d6000f3fe6080604052348015600f57600080fd5b506004361060285760003560e01c80632cfcc53914602d575b600080fd5b60336035565b005b56fea26469706673582212201269f8013d1d61359cc0dcfe4afc746e605ac027ca3d145f78a93772c386715264736f6c63430008070033",
  "linkReferences": {},
  "deployedLinkReferences": {}
}